{
    "_format": "hh-sol-artifact-1",
    "contractName": "DeliveryProof",
    "sourceName": "contracts/DeliveryProof.sol",
    "abi": [
        {
            "inputs": [
                {
                    "internalType": "string",
                    "name": "deliveryId",
                    "type": "string"
                }
            ],
            "name": "getProof",
            "outputs": [
                {
                    "internalType": "string",
                    "name": "",
                    "type": "string"
                },
                {
                    "internalType": "string",
                    "name": "",
                    "type": "string"
                },
                {
                    "internalType": "string",
                    "name": "",
                    "type": "string"
                },
                {
                    "internalType": "string",
                    "name": "",
                    "type": "string"
                },
                {
                    "internalType": "uint256",
                    "name": "",
                    "type": "uint256"
                }
            ],
            "stateMutability": "view",
            "type": "function"
        },
        {
            "inputs": [
                {
                    "internalType": "string",
                    "name": "",
                    "type": "string"
                }
            ],
            "name": "proofs",
            "outputs": [
                {
                    "internalType": "string",
                    "name": "deliveryId",
                    "type": "string"
                },
                {
                    "internalType": "string",
                    "name": "agentEmail",
                    "type": "string"
                },
                {
                    "internalType": "string",
                    "name": "photoUrl",
                    "type": "string"
                },
                {
                    "internalType": "string",
                    "name": "location",
                    "type": "string"
                },
                {
                    "internalType": "uint256",
                    "name": "timestamp",
                    "type": "uint256"
                }
            ],
            "stateMutability": "view",
            "type": "function"
        },
        {
            "inputs": [
                {
                    "internalType": "string",
                    "name": "deliveryId",
                    "type": "string"
                },
                {
                    "internalType": "string",
                    "name": "agentEmail",
                    "type": "string"
                },
                {
                    "internalType": "string",
                    "name": "photoUrl",
                    "type": "string"
                },
                {
                    "internalType": "string",
                    "name": "location",
                    "type": "string"
                },
                {
                    "internalType": "uint256",
                    "name": "timestamp",
                    "type": "uint256"
                }
            ],
            "name": "submitProof",
            "outputs": [],
            "stateMutability": "nonpayable",
            "type": "function"
        }
    ],
    "bytecode": "0x608060405234801561001057600080fd5b50610dc2806100206000396000f3fe608060405234801561001057600080fd5b50600436106100415760003560e01c80633b18f691146100465780638917c0291461007a578063d57763a114610096575b600080fd5b610060600480360381019061005b91906107f4565b6100ca565b6040516100719594939291906108d5565b60405180910390f35b610094600480360381019061008f9190610970565b610336565b005b6100b060048036038101906100ab91906107f4565b6103e7565b6040516100c19594939291906108d5565b60405180910390f35b60008180516020810182018051848252602083016020850120818352809550505050505060009150905080600001805461010390610a8a565b80601f016020809104026020016040519081016040528092919081815260200182805461012f90610a8a565b801561017c5780601f106101515761010080835404028352916020019161017c565b820191906000526020600020905b81548152906001019060200180831161015f57829003601f168201915b50505050509080600101805461019190610a8a565b80601f01602080910402602001604051908101604052809291908181526020018280546101bd90610a8a565b801561020a5780601f106101df5761010080835404028352916020019161020a565b820191906000526020600020905b8154815290600101906020018083116101ed57829003601f168201915b50505050509080600201805461021f90610a8a565b80601f016020809104026020016040519081016040528092919081815260200182805461024b90610a8a565b80156102985780601f1061026d57610100808354040283529160200191610298565b820191906000526020600020905b81548152906001019060200180831161027b57829003601f168201915b5050505050908060030180546102ad90610a8a565b80601f01602080910402602001604051908101604052809291908181526020018280546102d990610a8a565b80156103265780601f106102fb57610100808354040283529160200191610326565b820191906000526020600020905b81548152906001019060200180831161030957829003601f168201915b5050505050908060040154905085565b6040518060a001604052808681526020018581526020018481526020018381526020018281525060008660405161036d9190610af7565b908152602001604051809103902060008201518160000190816103909190610cba565b5060208201518160010190816103a69190610cba565b5060408201518160020190816103bc9190610cba565b5060608201518160030190816103d29190610cba565b50608082015181600401559050505050505050565b6060806060806000806000876040516104009190610af7565b90815260200160405180910390206040518060a001604052908160008201805461042990610a8a565b80601f016020809104026020016040519081016040528092919081815260200182805461045590610a8a565b80156104a25780601f10610477576101008083540402835291602001916104a2565b820191906000526020600020905b81548152906001019060200180831161048557829003601f168201915b505050505081526020016001820180546104bb90610a8a565b80601f01602080910402602001604051908101604052809291908181526020018280546104e790610a8a565b80156105345780601f1061050957610100808354040283529160200191610534565b820191906000526020600020905b81548152906001019060200180831161051757829003601f168201915b5050505050815260200160028201805461054d90610a8a565b80601f016020809104026020016040519081016040528092919081815260200182805461057990610a8a565b80156105c65780601f1061059b576101008083540402835291602001916105c6565b820191906000526020600020905b8154815290600101906020018083116105a957829003601f168201915b505050505081526020016003820180546105df90610a8a565b80601f016020809104026020016040519081016040528092919081815260200182805461060b90610a8a565b80156106585780601f1061062d57610100808354040283529160200191610658565b820191906000526020600020905b81548152906001019060200180831161063b57829003601f168201915b50505050508152602001600482015481525050905080600001518160200151826040015183606001518460800151955095509550955095505091939590929450565b6000604051905090565b600080fd5b600080fd5b600080fd5b600080fd5b6000601f19601f8301169050919050565b7f4e487b7100000000000000000000000000000000000000000000000000000000600052604160045260246000fd5b610701826106b8565b810181811067ffffffffffffffff821117156107205761071f6106c9565b5b80604052505050565b600061073361069a565b905061073f82826106f8565b919050565b600067ffffffffffffffff82111561075f5761075e6106c9565b5b610768826106b8565b9050602081019050919050565b82818337600083830152505050565b600061079761079284610744565b610729565b9050828152602081018484840111156107b3576107b26106b3565b5b6107be848285610775565b509392505050565b600082601f8301126107db576107da6106ae565b5b81356107eb848260208601610784565b91505092915050565b60006020828403121561080a576108096106a4565b5b600082013567ffffffffffffffff811115610828576108276106a9565b5b610834848285016107c6565b91505092915050565b600081519050919050565b600082825260208201905092915050565b60005b8381101561087757808201518184015260208101905061085c565b60008484015250505050565b600061088e8261083d565b6108988185610848565b93506108a8818560208601610859565b6108b1816106b8565b840191505092915050565b6000819050919050565b6108cf816108bc565b82525050565b600060a08201905081810360008301526108ef8188610883565b905081810360208301526109038187610883565b905081810360408301526109178186610883565b9050818103606083015261092b8185610883565b905061093a60808301846108c6565b9695505050505050565b61094d816108bc565b811461095857600080fd5b50565b60008135905061096a81610944565b92915050565b600080600080600060a0868803121561098c5761098b6106a4565b5b600086013567ffffffffffffffff8111156109aa576109a96106a9565b5b6109b6888289016107c6565b955050602086013567ffffffffffffffff8111156109d7576109d66106a9565b5b6109e3888289016107c6565b945050604086013567ffffffffffffffff811115610a0457610a036106a9565b5b610a10888289016107c6565b935050606086013567ffffffffffffffff811115610a3157610a306106a9565b5b610a3d888289016107c6565b9250506080610a4e8882890161095b565b9150509295509295909350565b7f4e487b7100000000000000000000000000000000000000000000000000000000600052602260045260246000fd5b60006002820490506001821680610aa257607f821691505b602082108103610ab557610ab4610a5b565b5b50919050565b600081905092915050565b6000610ad18261083d565b610adb8185610abb565b9350610aeb818560208601610859565b80840191505092915050565b6000610b038284610ac6565b915081905092915050565b60008190508160005260206000209050919050565b60006020601f8301049050919050565b600082821b905092915050565b600060088302610b707fffffffffffffffffffffffffffffffffffffffffffffffffffffffffffffffff82610b33565b610b7a8683610b33565b95508019841693508086168417925050509392505050565b6000819050919050565b6000610bb7610bb2610bad846108bc565b610b92565b6108bc565b9050919050565b6000819050919050565b610bd183610b9c565b610be5610bdd82610bbe565b848454610b40565b825550505050565b600090565b610bfa610bed565b610c05818484610bc8565b505050565b5b81811015610c2957610c1e600082610bf2565b600181019050610c0b565b5050565b601f821115610c6e57610c3f81610b0e565b610c4884610b23565b81016020851015610c57578190505b610c6b610c6385610b23565b830182610c0a565b50505b505050565b600082821c905092915050565b6000610c9160001984600802610c73565b1980831691505092915050565b6000610caa8383610c80565b9150826002028217905092915050565b610cc38261083d565b67ffffffffffffffff811115610cdc57610cdb6106c9565b5b610ce68254610a8a565b610cf1828285610c2d565b600060209050601f831160018114610d245760008415610d12578287015190505b610d1c8582610c9e565b865550610d84565b601f198416610d3286610b0e565b60005b82811015610d5a57848901518255600182019150602085019450602081019050610d35565b86831015610d775784890151610d73601f891682610c80565b8355505b6001600288020188555050505b50505050505056fea2646970667358221220ad74c7f244aeb44ae386c729c41ab3db01cb794217ff95e3b2ddccb41d6da88d64736f6c63430008140033",
    "linkReferences": {},
    "deployedLinkReferences": {}
}